:100000004DC6189518951895A2C318951895B7C39D
:10001000189580C318955CC3189544C3BDC3189543
:1000200018951895189500C1814001C0804101C004
:10003000804100C1814001C0804100C1814000C1B8
:10004000814001C0804101C0804100C1814000C1A8
:10005000814001C0804100C1814001C0804101C098
:10006000804100C1814001C0804100C1814000C188
:10007000814001C0804100C1814001C0804101C078
:10008000804100C1814000C1814001C0804101C068
:10009000804100C1814001C0804100C1814000C158
:1000A000814001C0804101C0804100C1814000C148
:1000B000814001C0804100C1814001C0804101C038
:1000C000804100C1814000C1814001C0804101C028
:1000D000804100C1814001C0804100C1814000C118
:1000E000814001C0804100C1814001C0804101C008
:1000F000804100C1814001C0804100C1814000C1F8
:10010000814001C0804101C0804100C1814000C1E7
:10011000814001C0804100C1814001C0804101C0D7
:10012000804100C1814000C0C101C30302C2C606B4
:1001300007C705C5C404CC0C0DCD0FCFCE0E0ACA1F
:10014000CB0BC90908C8D81819D91BDBDA1A1EDE6F
:10015000DF1FDD1D1CDC14D4D515D71716D6D2121F
:1001600013D311D1D010F03031F133F3F23236F62F
:10017000F737F53534F43CFCFD3DFF3F3EFEFA3ADF
:100180003BFB39F9F83828E8E929EB2B2AEAEE2E6F
:100190002FEF2DEDEC2CE42425E527E7E62622E2DF
:1001A000E323E12120E0A06061A163A3A26266A62F
:1001B000A767A56564A46CACAD6DAF6F6EAEAA6A9F
:1001C0006BAB69A9A86878B8B979BB7B7ABABE7EEF
:1001D0007FBF7DBDBC7CB47475B577B7B67672B29F
:1001E000B373B17170B0509091519353529296562F
:1001F0005797559594549C5C5D9D5F9F9E5E5A9A5F
:100200009B5B99595898884849894B8B8A4A4E8EEE
:100210008F4F8D4D4C8C448485458747468682425E
:100220004383418180403030303036030506070477
:05023000141414141465
:10023600190100BE020D0083029C029F02A102A4C6
:1002460002A702A902AB02AD02AF02B102B402B725
:1002560002009B00BC010000DC00E000340EA6D5C5
:1002660044D002811381208131812017310719F191
:10027600E19921C0DF01A00FB11F14960C911596CC
:100286002C91F894E1990EC010E01FBB0EBB2DBB5C
:1002960004E00CBB02E00CBB028113810F5F1F4F11
:1002A600028313837894828193818530904018F07D
:1002B60000E002830383E4E086C517D040815181C4
:1002C600E40FF51F0483218710D0008111810F5F91
:1002D6001F4F00831183E091BC01F12F359720F069
:1002E60000E003D0008301830895ECEBF1E008956C
:1002F600E199FECFF894E199FECF1FBB0EBBE09AC1
:1003060078940DB3089551D590E080E06DD10EB587
:1003160002600EBD06B1006C06B97894AAECB1E095
:1003260015C000902B020CE4001608F000241124DE
:10033600EFE2F2E0008211822CEF38E0A00102E148
:1003460010E0BCD4201B310B3BBD2ABDF8940091B4
:10035600D601002381F04090D70100E00093D6013A
:10036600242DFD010481158129D222E0429EF0014F
:10037600E85CFD4F91D17894FD01028500FF39C0FC
:10038600843608F483950E7F02872ED4FD010681FC
:100396001781012B71F1843660F100914C0204FD46
:1003A60006C000E0068307830087018722C0068116
:1003B600015010400CD1992319F0C69A90E002C062
:1003C600C69891E0008511850F3F2FEF120789F03F
:1003D600F6D040913F0241FF07C00217130748F0CD
:1003E600FD01021B130B03C0FD01020F131F008743
:1003F6001187FD0100851185E2E4F2E04DD10091FF
:100406004C0210E0E0E4F2E047D10D911C91119707
:10041600073420E0104090F010E02D932C931197B4
:10042600FD012281338102B7200F311FECE3F2E098
:100436002083318312BFFD011283138314D0CAD0E7
:100446009E9902C0046001C00B7F0183ABD207DF17
:1004560000912D0200FF65CF10914C0210951F7080
:1004660007E0109F60CFA2D410E01093340275D23B
:10047600202F212B09F458C0AAECB1E01230A0F5C8
:10048600E5E3F2E0208131812017310718F469D2C3
:100496002083318366D280819181FD0160857185DB
:1004A60068177907C1F08BD02223A9F00AE010E083
:1004B600AC0104D4FD018BD00617170730F4601B7E
:1004C600710B8B0181D089D005C0061B170B7CD020
:1004D60081D00D7F018385D0118100E01E7FDCD0A5
:1004E600192B8083118319C0FD0126813781232BA7
:1004F60009F041C090913F029F71E6E3F2E00DC41E
:1005060069D00061018320913F020CE010E0D5DE46
:1005160020913E020DE010E0D0DE1FD20F3F1F4FAC
:1005260019F000E00083018355D001FF27C0C79A68
:1005360026C050D00F7EE6CF50D0E4CF4BD00D7FF3
:10054600E1CF90933F02DFCF9062FBCF9064F9CF6B
:100556009066F7CF9068F5CF906AF3CF3BD00860EE
:10056600D1CF38D0077FCECF38D001830FEF11E03F
:10057600FD012DD0C8CF0FEFF4D1D4CFC79801819C
:1005860004FF02C0AD9801C0AD9A018105FF02C00B
:10059600AC9A01C0AC98018106FF02C0AB9A01C0BB
:1005A600AB98018107FF02C0AA9A01C0AA980181EF
:1005B60003FF02C0C39801C0C39AE4E004C4E3E3A6
:1005C600F2E0208131810895A90186D3EAEC068301
:1005D6001783089506D00181089503D00181026032
:1005E6000895EEE3F2E00895E1D30FEE07BB03E1D1
:1005F60008BB06E001BB01E702BB0CE304BB0CE74A
:1006060005BB02EE0FBD08E10EBD00EB16E317BDFC
:1006160006BD10E01BBD1ABD09E419BD08BD09B72A
:10062600096409BF06E003BF02E00BB908E90AB98D
:1006360006E000BD10BD03E309B900E407B90EE00A
:1006460006B980E090E0082F53DEB02F082F10E0A7
:100656000F5F1F4F4DDE10E0A02F02E0909FF001CC
:10066600E55DFD4F77D18E5F9395963060F30CE094
:100676003FDE802F0DE010E03BDE182F00E01E7FEE
:100686001260AFDF09D0EFDE81D00FEF11E09FDF00
:100696000087018792CF1F4F00831183089546D0AC
:1006A60030D01091D801011720F426D002A50CB93C
:1006B6000BC000E000932A0292980AB1077B0AB9A0
:1006C600C0980AB100690AB95EC0FA93EA932A9300
:1006D6004DD000912A02083228F42CB10DD0228385
:1006E60010D003C00AB10F760AB900EF04BD07E0C7
:1006F60005BD1FBF23D01895F0E0E02FE852FE4F4E
:10070600089500912A02039500932A0208950ED0B7
:100716000091CA011091CB01012B39F037D002812B
:10072600138101501F4F028313832DC0FA93EA935E
:100736002A931A930A932FB708952FBF09911991F7
:100746002991E991F9910895FA93EA930FD0C09A05
:100756000AB10F760AB9E8EDF1E001810160018383
:100766001FBF09911991E991F99118951A930A9366
:100776001FB700E005BD089508D0F0D00F5F8BDFEE
:10078600028501600287D9DF1895D0DFEAECF1E037
:100796000895FBDF0385058704B115B1048315832E
:1007A60001E004870385017003950170038707B193
:1007B600007F1385012B07B9369AE5CFEFD26097F4
:1007C600C8017894012B11F481E090E002E0209FAB
:1007D600B001E0EEF0E0E00DF11DC0D00C5F5BDF94
:1007E600422F50E004E610E069D240EE50E0040FDC
:1007F600151FA081B1810C5F1F4FA01BB10BB595D2
:10080600A795B595A79559970CF046DF408151817C
:10081600FA018283938340805180FE013C96E60F65
:10082600F71F4082518204E0209FA4EBB1E0A00DA7
:10083600B11DFE018DD020E0FE013496E60FF71FB4
:1008460020832183FE01389683D09E01285F3F4F87
:10085600260F371FFD0182D00417150711F44082B9
:1008660051828E010C5F1F4F060F171FF80172D0C1
:10087600FD0120803180F90120823182E9E18E2E4E
:10088600ECEA2E2EE1E03E2E200C311C0E01060E67
:10089600171EE22FA081B1816D917C91119764178B
:1008A600750719F44D925C921197FD01628173816F
:1008B6006817790770F4F80160817181FB01808106
:1008C6009181FA0180839183FB014083518380E00B
:1008D60090E0F0016081F181E62F60817181F00185
:1008E60060837183A215B30569F1F80133D06D9069
:1008F6007C901197F90160827182F301A080B1802A
:10090600A416B50611F440825182A280B380A816BF
:10091600B90650F48D919C911197FA0180839183C9
:100926004D935C9380E090E06214730459F0F801F3
:1009360060827182F301A081B181F9010BD08A94A2
:1009460009F0A7CFFB01028113816096ECE033C268
:10095600E60FF71FA083B183089503D000811181AC
:100966000895E1E3F2E00895082E8FEF3FEF60E08F
:1009760070E012C0F801E60FF71F40814827832F69
:10098600E42FF0E0EA5DFF4F34918327E42FF0E097
:10099600EA5DFE4F34916395621760F3132F082FBB
:1009A600802D0895FBD180E008ED802E01E0902E89
:1009B600E8EDF1E0018100FFF1C00E7F0183209197
:1009C6002A02273008F4E3C00091DA01083C09F056
:1009D600DEC022500AED11E0C7DF20912A02F401A1
:1009E600E20FF81F208131812017310709F0CFC0AF
:1009F6000091DF011091DD012091DB01235029F0E8
:100A06002A9591F02C5071F192C0CAD008F08DC091
:100A1600D4D08CF5002379F1093268F5891798F45A
:100A2600C3D02D5AD1D0FACFBBD008F07EC0C5D0E6
:100A360014F5002301F1093220F01DC0B5D0205A6B
:100A4600C3D08917D8F30091DA010093020200910E
:100A5600DB0100930302990F909304029D5F90932C
:100A6600D80174C09DD008F060C0A7D024F400233C
:100A760011F0093260F103E05BC01381012B31F103
:100A8600213021F0243011F02530D1F4422F477067
:100A960001E00FD1269526952695F401E20FFB1D60
:100AA600E459FF4F1081102B1083FD012281800134
:100AB60004DCFD01238101E0040D5B1C152DFDDB2B
:100AC600FD0132810381F301008331838395891708
:100AD600E8F4082F000F095F2A2D280F12E0219F46
:100AE60020013401600C711C13E5610E7B1CD401DE
:100AF600A00FBB1DF30140815181FD01128100E071
:100B06004030510709F4B9CF01E0B7CF06E00093B2
:100B1600D80180E0F401E80FFB1D028102A783954E
:100B26000091D801801790F4F5CF02E001C001E0F2
:100B36001091DA01109302021091DB0110681093F4
:100B460003020093040203E00093D8012091D80128
:100B560002E012E009DF2091D80130E0F401E20F53
:100B6600F31F02A713A7F40100810E5F008300E0C4
:100B7600F401E00FF31F328303950832C8F3929A0B
:100B86000AB108640AB9009102020CB904C00AB19C
:100B960000690AB9C09800E000932A02ECE00BC194
:100BA600A12E902F16300895A501480F5B1D440F06
:100BB600551F9401240F351F0895E02FF0E0BB2444
:100BC600E10FF81F379708953F4F02E0809F840199
:100BD600000D111DF9014181F80145A7F901208198
:100BE600F80126A783950895E1D020E030E0A6E439
:100BF600B2E0A20FB31FF901EA5DFD4FE491F0E008
:100C06005081E22FE55DFD4F449141D05023FD0117
:100C160021F004850395048703C0078103950783A4
:100C260006E412E0020F131F308133953083F0E0A3
:100C3600E22FE05DFD4F6491F801631710F530E097
:100C460030833485422F23D01781131780F4062E64
:100C5600112450E0031A11086695669566950616E6
:100C660015065CF4E6E4F2E01681102B05C000954B
:100C7600E6E4F2E016811023168300E0FD01048706
:100C860007832395253008F4B1CFE4E09CC001E04A
:100C960010E01CC0CBC00FED0DBF00E00EBFC0E9D9
:100CA600D0E09AD0002309F0A7D02DDB01D0F2CFF7
:100CB600F1CF4A9512F0000FE1F70895149F102D19
:100CC600059F100D049F002D110D08954A951AF0E9
:100CD600000F111FFBCF089500241124EFE0001F21
:100CE600111F001C111C0416150610F0041A150A13
:100CF600EA95AAF7001F111FA00100951095089507
:100D06007591659155914591159011FA25903590FB
:100D16000895F9DF041B10E003C0F4DF041B150B74
:100D260020E030E005C0ECDF041B150B260B370B6B
:100D3600B8F010FC17C045910590E00FF11F04179D
:100D4600100540E02407340758F436F404910024D3
:100D5600F101E01BF0090994E00FF11F2590359091
:100D6600F101099411F4D6F7F1CF31960EF03196D0
:100D760050E060E070E045914B3F48F089F34F3F0B
:100D860029F04E3F11F07591659155914591041BDF
:100D9600150B260B370B39F318F3E7CFBA92AA9245
:100DA6009A928A927A926A925A924A92BA93AA939B
:100DB6009A938A930895BB84AA84998488847F80B1
:100DC6006E805D804C80BB81AA8199818881F0E02C
:100DD600EC0FFD1FEF01089501E0089520E006D015
:100DE600E9F70895259102D0E9F708952D9301506A
:100DF6001040202F212B089588E592E0FC010591F3
:100E06001491FC013296A591B491FC01349625917A
:100E16003491422F432B19F0F901E4DF01C0DEDFE4
:100E2600069612E08436910748F30895FFCFE40052
:100E36004801000000000000000000000000000063
:100E4600000000000000000000000000000000009C
:100E5600000000000000000000000000000000008C
:100E6600000000000000000000000000000000007C
:100E7600000000000000000000000000000000006C
:100E8600000000000000000000000000000000005C
:100E9600000000000000000000000000000000004C
:100EA600000000000000000000000000000000003C
:100EB600000000000000000000000000000000002C
:100EC600000000000000000000000000000000001C
:100ED600000000000000000000000000000000000C
:100EE60000000000000000000000000000000000FC
:100EF60000000000000000000000000000000000EC
:0A0F06000000AC010000B001000083
:00000001FF
:00000001FF
